:020000040800F2
:10000000C009002089020008891F0008811F00081C
:10001000851F0008CD0800088925000800000000A1
:100020000000000000000000000000008D1F00081C
:10003000D1080008000000008B1F00088F1F000877
:10004000AD020008AD020008AD020008AD020008D4
:10005000AD020008AD020008AD020008AD020008C4
:10006000AD020008AD020008AD020008AD020008B4
:10007000AD020008AD020008AD020008AD020008A4
:10008000AD020008AD020008AD020008AD02000894
:10009000AD020008AD020008AD020008AD02000884
:1000A000AD020008AD020008AD020008AD02000874
:1000B000AD020008AD020008AD1F0008AD02000847
:1000C000AD020008AD020008AD020008AD02000854
:1000D000AD02000831250008AD02000841250008E6
:1000E000AD020008AD020008AD020008AD02000834
:1000F000AD020008AD020008AD020008AD02000824
:10010000AD020008AD020008AD020008AD02000813
:10011000AD020008AD020008AD020008AD02000803
:10012000AD020008AD020008AD020008AD020008F3
:10013000AD020008AD020008AD020008AD020008E3
:10014000AD020008AD020008AD020008AD020008D3
:10015000AD020008AD020008AD020008AD020008C3
:10016000AD020008AD020008AD020008AD020008B3
:10017000AD020008AD020008AD020008000000005A
:10018000AD020008AD02000800F002F800F06DF8C2
:100190000AA090E8000C82448344AAF10107DA45E2
:1001A00001D100F062F8AFF2090EBAE80F0013F0C7
:1001B000010F18BFFB1A43F00103184778C2000073
:1001C00098C200000A444FF0000C10F8013B13F0F5
:1001D000070408BF10F8014B1D1108BF10F8015BA0
:1001E000641E05D010F8016B641E01F8016BF9D193
:1001F00013F0080F1EBF10F8014BAD1C0C1B09D1EA
:100200006D1E58BF01F801CBFAD505E014F8016B5B
:1002100001F8016B6D1EF9D59142D6D370470000ED
:100220000023002400250026103A28BF78C1FBD8FF
:10023000520728BF30C148BF0B607047642900F0E7
:100240003781752900F03481782900F06D816329A8
:1002500000F0E782732900F0EC82002070471FB5A0
:1002600008F09EFE1FBD10B510BD00F0FDFA11464E
:10027000FFF7F5FF06F036FE00F01BFB03B4FFF7B7
:10028000F2FF03BC03F081F80C48016841F47001EF
:1002900001600B4880470B480047FEE7FEE7FEE79A
:1002A000FEE7FEE7FEE7FEE7FEE7FEE7FEE700000B
:1002B00005480649044A064B7047000088ED00E0F7
:1002C000991F000889010008C0050020C00900200E
:1002D000C0050020704753EA020C00F069802DE948
:1002E000F04B4FF00006002B1FBFB3FA83F503FA63
:1002F00005F424FA05F65E4012BF1643B2FA82F501
:1003000002FA05F4C5F120051EBF22FA05FC44EAF5
:100310000C04203556EA044C4FEA144418BF641C00
:100320004FF000084FF00009904271EB030C39D3F5
:10033000002919BFB1FA81F701FA07F6B0FA80F780
:1003400000FA07F6C7F120071EBF20FA07FC46EAAD
:100350000C062037B6FBF4FCA7EB0507103F07F0AF
:100360001F0BCBF120060CFA0BFB2CFA06F644BF50
:10037000B3460026202FA4BF5E464FF0000B5BEA79
:10038000060C08BF4FF0010B19EB0B09ABFB027C0D
:1003900048EB0608C01B06FB02CC0BFB03CC71EB41
:1003A0000C01C1E70B46024641464846BDE8F08BCA
:1003B00013B54FF000004FF00001AFF30080BDE82F
:1003C0001C4070470FB4044910B503AA029800F00E
:1003D00035FA10BC5DF814FB340000200FB41CB5D6
:1003E0000C0007AA009001D02044401E074B7B441C
:1003F00069460190069800F0EAF9002C03D069469E
:10040000002000F0F7F91CBC5DF814FB0D0400009F
:1004100070B5044685690068C10601D5302600E044
:100420002026C00707D070BDD4E90121304690478F
:10043000206A401C20626D1EF6D570BD70B5044662
:1004400085690078C00707D170BDD4E9012120205B
:100450009047206A401C20626D1EF6D570BD70B5B5
:100460000C460546012A05D02878800600D5EA69A1
:10047000002302E0012305E05B1C934202D2E05C12
:100480000028F9D1A869E618C01AA861286A18449A
:1004900028622846FFF7BCFF04E0D5E9012114F8E3
:1004A000010B9047B442F8D32846FFF7C7FF70BD51
:1004B0002DE9F0410646002410687529314616A53D
:1004C00010D0AFF30080002802DA404213A507E005
:1004D00031688A0701D512A502E0490704D511A5A4
:1004E000012401E0AFF3008000210A2206F1240775
:1004F00009E0B0FBF2FCB0FBF2F302FB1C00303071
:1005000078541846491C0028F3D123462A46304621
:10051000BDE8F04100F0FCB8000000002D00000034
:100520002B0000002000000070B504460D46214657
:100530001068AFF300802188090502D50F4A7A447C
:1005400002E00E4A7A440E32002104F1240305E051
:1005500000F00F060009965D5E54491C0028F7D193
:1005600020780023000704D5702D02D009B10223A2
:1005700011322046BDE8704000F0CAB800BA000051
:100580002DE9F05F894604464FF0000ADFF874B1A8
:10059000FB44C0F820A02046E1688847002874D0BA
:1005A000252806D0D4E901219047206A401C20620A
:1005B000F1E700265F462046E16888472028054687
:1005C00007DB312D05D2781910F8200C08B106434D
:1005D000F1E7B00701D526F00406C4F81CA00027F7
:1005E000C4F818A02A2D09D0284602F0C7FE38B357
:1005F00004EB8708303DC8F8185019E059F8041B7F
:10060000204604EB87029161E1688847012F054687
:1006100018D1E069002820DA26F020061DE0D8F87D
:10062000180000EB800005EB40003038C8F81800D7
:100630002046E1688847054602F0A0FE0028EED17A
:10064000012F0AD02E2D08D12046E16888477F1C53
:100650000546022F46F02006C4DBA069002803DA15
:10066000404246F00106A061F00701D026F01006D6
:100670006C2D0BD0682D09D04C2D39D06A2D35D07A
:10068000742D35D07A2D33D016E038E0E1682F464E
:1006900020468847B842054609D16C2F26D04FF432
:1006A0008060E168064320468847054604E06C2FD9
:1006B0001AD04FF4807006430DB3A5F141001928FC
:1006C00002D8203546F400664A4629462046266070
:1006D0004E46FFF7B3FD80B101280BD0F61D26F082
:1006E000070000F1080956E74020E4E78020D8E73A
:1006F0000020D6E706F104094DE7284652E7206AB4
:10070000BDE8F09FD6B9000070477047704770474A
:100710002DE9F0470D4699469246044600F124081B
:100720000168880604D5E06921F01001216000E02D
:100730000120A84201DD471B00E00027A1697A19CA
:1007400002EB0900081AA0612078C00602D42046F6
:10075000FFF75EFE002608E0D4E901211AF8060042
:100760009047206A401C761C20624E45F4DB2078BE
:10077000C0060AD52046FFF74BFE06E0D4E901216A
:1007800030209047206A401C2062381EA7F10107E4
:10079000F4DC07E0D4E9012118F805009047206A4D
:1007A000401C2062281EA5F10105F3DC2046FFF75E
:1007B00045FE2078000602D50220BDE8F087012022
:1007C000FBE7000001694A1C02610878704700B528
:1007D0008FB0CDE901310021059105497944CDE97A
:1007E000031011466846FFF7CBFE0FB000BD0000B6
:1007F000E5FFFFFF0A6802F8010B0A607047D1E9C4
:1008000000239A4202D2531C0B601070704710B53F
:10081000436913B1AFF3008001E0FFF720FE012030
:1008200010BD127800F124010A7000224A700122E2
:10083000EDE711684FF0FF32E9E70000074B70B5B4
:100840000D467B44FFF7C3FF0446284600F008F836
:1008500010B14FF0FF3070BD204670BDB32B0000CB
:10086000007B00F080007047754600F02BF8AE4624
:1008700005006946534620F00700854618B020B5AC
:10088000FFF716FDBDE820404FF000064FF00007CF
:100890004FF000084FF0000B21F00701AC46ACE828
:1008A000C009ACE8C009ACE8C009ACE8C0098D4695
:1008B000704710B50446AFF300802046BDE81040F5
:1008C000FFF7DCBC004870475C05002000BFFEE776
:1008D00070472DE9FF4706460F4615469846DDE965
:1008E0000D9A0C9C002000900190029003908DF8CE
:1008F0000060FD208DF801008DF8027028128DF83F
:100900000300E8B28DF804008DF80580200E8DF804
:100910000600200C8DF80700200A8DF80800E0B2D0
:100920008DF809008DF80A908DF80BA06B208DF8DA
:100930000C000D21684606F0F5FCBDE8FF877FB589
:1009400006460D460024002000900190029003907E
:100950000DF80460641C112D68D2DFE805F0090F62
:10096000151B672167272D33393F6745515C4B00C5
:100970001F200DF80400601CC4B258E020200DF8C0
:100980000400601CC4B252E021200DF80400601C79
:10099000C4B24CE024200DF80400601CC4B246E050
:1009A00027200DF80400601CC4B240E031200DF88F
:1009B0000400601CC4B23AE033200DF80400601C4F
:1009C000C4B234E035200DF80400601CC4B22EE03F
:1009D00036200DF80400601CC4B228E037200DF862
:1009E0000400601CC4B222E03A200DF80400601C30
:1009F000C4B21CE03B200DF80400601CC4B216E039
:100A000042200DF80400601CC4B26C200DF80400F4
:100A1000601CC4B20BE043200DF80400601CC4B29B
:100A20007A200DF80400601CC4B200E000BF00BFD3
:100A30006B200DF80400601CC4B22146684606F025
:100A400071FC7FBD2DE9FF4105460F4614461E4649
:100A5000DDF82880002000900190029003908DF82E
:100A60000050F6208DF801008DF8027020128DF8EC
:100A70000300E0B28DF804008DF805608DF8068063
:100A80006B208DF807000821684606F04BFCBDE896
:100A9000FF81000070B504461D460023B5F5804F68
:100AA00013D154F822300C480340D1E9000640EA43
:100AB00006108E6840EA06208E8940EA06408E695C
:100AC0003043034344F8223003E06FF0704044F8B1
:100AD0002200002070BD00000000F0CF10B50346DA
:100AE0000022086853F8202012480240D1E901048E
:100AF0002043CC6820430C6920434C6920438C6917
:100B00002043CC6920430C6A20434C6A20438C6A02
:100B10002043CC6A2043CC6B20430C6B2043024320
:100B20008868082801D142F04002086843F8202074
:100B3000002010BD8000F0FF30B503460024501C9B
:100B400053F8204004F04044D1E9000540EA051084
:100B50008D6840EA05208D8940EA0545088A401ED7
:100B600045EA0055087D801E45EA00608D692843EE
:100B70000443501C43F82040002030BD70B50446AB
:100B8000A56D00F08BF9064694F83500022808D0D0
:100B90008020606500BF002084F8340000BF012081
:100BA00070BD2068006820F0160021680860206889
:100BB000406920F0800021684861206C08B9A06C71
:100BC00028B12068006820F00800216808602068CB
:100BD000006820F00100216808600FE000F05EF975
:100BE000801B05280AD92020606500BF002084F8FA
:100BF000340000BF032084F83500D1E72068006886
:100C000000F001000028E9D194F85C103F208840F2
:100C1000A86000BF002084F8340000BF012084F8E1
:100C200035000020BCE7014691F83500022803D0CA
:100C30008020486501207047052081F8350008684C
:100C4000006820F001000A6810600020F3E710B58A
:100C50000446A0B202F0A2FB10BD0000F8B50246A7
:100C60000B460025002400200021DEE0012606FAC4
:100C700001F51E6806EA0504AC4275D11E7906F03E
:100C80000306012E04D01E7906F00306022E13D1AE
:100C900090684F000326BE40B0434F00DE68BE4060
:100CA00030439060506801268E40B0431E79C6F3F1
:100CB00000168E40304350601E7906F00306032E66
:100CC00009D0D0684F000326BE40B0434F009E6855
:100CD000BE403043D0601E7906F00306022E13D1C9
:100CE000CF0802F1200656F827004E07F70E0F2610
:100CF000BE40B0434F07FF0E1E69BE403043CF08D1
:100D000002F1200646F8270010684F000326BE4077
:100D1000B0431E7906F003064F00BE40304310601A
:100D20005E6806F08056B6F1805F7DD100BF002678
:100D30000096404E366846F480463E4F3E603E4642
:100D4000366806F48046009600BF00BF3A4E8F0812
:100D500056F827008E07370F0F26BE40B043374E98
:100D6000B24202D1002624E05EE0354EB24201D10B
:100D700001261EE0334EB24201D1022619E0324E66
:100D8000B24201D1032614E0304EB24201D1042612
:100D90000FE02F4EB24201D105260AE02D4EB2429D
:100DA00001D1062605E02C4EB24201D1072600E013
:100DB00008268F073F0FBE4030431F4E8F0846F86E
:100DC0002700264E3068A0435E6806F48036B6F5EC
:100DD000803F00D12043214E3060361D3068A04353
:100DE0005E6806F40036B6F5003F00D120431B4E86
:100DF000361D3060361D3068A0435E6806F48016EC
:100E0000B6F5801F00D12043144E08363060361DE1
:100E10003068A0435E6806F40016B6F5001F00D1E6
:100E200020430E4E0C363060491C1029FFF41EAFD3
:100E3000F8BD00004438024008380140000002407C
:100E40000004024000080240000C02400010024072
:100E50000014024000180240001C0240003C014007
:100E6000024613690B400BB1012000E000207047DF
:100E700010B5426921EA020302EA010443EA04438D
:100E8000836110BD0AB1816101E00B048361704789
:100E900001480068000C7047002004E00148006829
:100EA000704700003C0000200348006803490978AF
:100EB00008440149086070473C00002044000020BD
:100EC00010B50A48006840F40070084908600846F8
:100ED000006840F480600860032000F07FF80F2075
:100EE00000F006F800F02AF8002010BD003C024097
:100EF00070B504460E4800784FF47A71B1FBF0F0FB
:100F00000C490968B1FBF0F5284600F087FC08B1F0
:100F1000012070BD102C07D200222146501E00F087
:100F20001EF80548046001E00120F2E70020F0E728
:100F300044000020000000204000002070470146CF
:100F40000846002809DB00F01F0301229A404309EC
:100F50009B0003F1E023C3F8002100BF70472DE997
:100F6000F05F80460D461646002702F0EBF9074673
:100F700039462A46334601F00700C0F1070ABAF1A4
:100F8000040F02D94FF0040A01E0C0F1070AD1466C
:100F900000F1040ABAF1070F02D24FF0000A01E093
:100FA000A0F1030AD4464FF0010A0AFA09FAAAF19D
:100FB000010A0AEA020A0AFA0CFA4FF0010B0BFACC
:100FC0000CFBABF1010B0BEA030B4AEA0B042146C5
:100FD000404602F0BFF9BDE8F09F000000BF00F0FE
:100FE0000702064B19684FF6FF031940044B0B43E9
:100FF00043EA0221014B196000BF70470CED00E08D
:101000000000FA0570B504460D460CB9012070BD0C
:101010005848006800F00700A84209D255490D70F1
:101020000846006800F00700A84201D00120EEE762
:10103000207800F0020002281DD1207800F0040082
:10104000042805D14C48006840F4E0504A49086043
:10105000207800F00800082805D14748006840F4CF
:101060006040454908604448006820F0F000A168ED
:10107000084341490860207800F00100A8B3606887
:10108000012807D13C4808380068C0F34040B8B98F
:101090000120BCE76068022802D06068032807D1FD
:1010A000354808380068C0F3406048B90120AEE711
:1010B000314808380068C0F3400008B90120A6E7AD
:1010C0002D48006820F00300616808432A49086041
:1010D000FFF7E4FE064609E0FFF7E0FE801B41F261
:1010E0008831884202D9032091E707E0224800684E
:1010F00000F00C006168B0EB810FEDD11D48006875
:1011000000F00700A84209D91A490D700846006886
:1011100000F00700A84201D0012078E7207800F015
:101120000400042807D11448006820F4E050E16866
:10113000084311490860207800F00800082808D109
:101140000D48006820F46040216940EAC1000A4966
:10115000086000F03FF808490968C1F30311074A25
:10116000515CC8400649086006480068FFF7C0FEA9
:1011700000204CE7003C024008380240AA8F0008DB
:101180000000002040000020014800687047000077
:101190000000002000B5FFF7F7FF04490968C1F31C
:1011A0008221034A515CC84000BD0000083802405B
:1011B000BA8F000800B5FFF7E7FF04490968C1F3DB
:1011C0004231034A515CC84000BD0000083802406B
:1011D000BA8F00082DE9F047002400250026A1461B
:1011E0002548006800F00C0020B1042805D008282C
:1011F0003AD105E0DFF8849039E0DFF8849036E0FA
:101200001D48001F006800F03F041B48001F0068D5
:1012100000F4800078B11A481749091F0968C1F322
:101220008811A0FB01700146224600233846FFF7D3
:1012300052F805460EE011480F49091F0968C1F32D
:101240008811A0FB01700146224600233846FFF7B3
:1012500042F805460848001F0068C0F30140401CE2
:101260004600B5FBF6F902E0DFF8109000BF00BFC2
:101270004846BDE8F0870000083802400024F4002A
:1012800000127A00F8B504460CB90120F8BD2078A8
:1012900000F00100002874D0F948006800F00C004C
:1012A00004280DD0F648006800F00C00082813D17F
:1012B000F348001F006800F48000B0F5800F0BD1E8
:1012C000EF4808380068C0F34040002859D06068F3
:1012D000002856D10120D9E700BF6068B0F5803FF3
:1012E00008D1E7480838006840F48030E4490839FC
:1012F00008601EE06068B0F5A02F0DD1E048083806
:10130000006840F48020DE4908390860084600681B
:1013100040F4803008600CE0D9480838006820F4B8
:101320008030D749083908600846006820F48020DA
:10133000086000BF606890B1FFF7B0FD054606E0A9
:10134000FFF7ACFD401B642801D903209EE7CC4881
:1013500008380068C0F340400028F1D011E0FFF7E2
:101360009DFD054606E0FFF799FD401B642801D965
:1013700003208BE7C24808380068C0F340400028CB
:10138000F1D1207800F0020002285FD1BC4800684B
:1013900000F00C0058B1BA48006800F00C000828B2
:1013A0001CD1B748001F006800F48000B0B9B448F1
:1013B00008380068C0F3400020B1E068012801D07F
:1013C000012063E7AE480838006820F0F800216982
:1013D00040EAC100AA490839086037E0E06800B374
:1013E0000120A8490860FFF759FD054606E0FFF710
:1013F00055FD401B022801D9032047E7A0480838C3
:101400000068C0F340000028F1D09D48083800680B
:1014100020F0F800216940EAC100994908390860C4
:1014200014E0002097490860FFF738FD054606E004
:10143000FFF734FD401B022801D9032026E790481E
:1014400008380068C0F340000028F1D1207800F08F
:10145000080008282CD16069A8B101208A490860D9
:10146000FFF71CFD054606E0FFF718FD401B0228AC
:1014700001D903200AE782486C300068C0F34000BD
:101480000028F1D014E000207F490860FFF706FD36
:10149000054606E0FFF702FD401B022801D90320A4
:1014A000F4E677486C300068C0F340000028F1D1C2
:1014B000207800F00400042870D1002770483830EC
:1014C000006800F0805090B900BF002000906C4888
:1014D0003830006840F0805069493831086008466B
:1014E000006800F08050009000BF00BF01276748EF
:1014F000006800F48070B0B96448006840F48070FF
:1015000062490860FFF7CAFC054606E0FFF7C6FC23
:10151000401B022801D90320B8E65C48006800F4AB
:1015200080700028F2D000BFA068012808D154487C
:101530006830006840F001005149683108601DE0E2
:10154000A06805280DD14E486830006840F00400BE
:101550004B49683108600846006840F001000860A7
:101560000CE047486830006820F0010044496831C9
:1015700008600846006820F00400086000BFA0680A
:10158000A8B1FFF78BFC054609E0FFF787FC401B7D
:1015900041F28831884202D9032077E626E03848B4
:1015A00068300068C0F340000028EED013E0FFF779
:1015B00075FC054608E0FFF771FC401B41F28831DD
:1015C000884201D9032061E62D4868300068C0F3E5
:1015D00040000028EFD1012F07D12948383000689A
:1015E00020F0805026493831086000BFA0690028EB
:1015F00045D02348006800F00C0008285DD0A069A1
:10160000022845D100201F490866FFF747FC054620
:1016100006E0FFF743FC401B022801D9032035E612
:10162000174808380068C0F340600028F1D1D4E9B9
:1016300007010843616A40EA81110122A06AC2EBF6
:10164000500041EA00412C20005D41EA00600C4955
:10165000091F086001200B490866FFF71FFC0546BB
:1016600006E0FFF71BFC401B022801D903200DE612
:10167000034808380068C0F340600028F1D049E012
:101680000838024000004742800E47420070004088
:10169000002021490866FFF701FC054606E0FFF738
:1016A000FDFB401B022801D90320EFE51B48006821
:1016B000C0F340600028F2D12CE0A069012800D1DD
:1016C000E4E51648001D0668A069012820D006F44C
:1016D0008001E06981421BD106F03F01206A81420E
:1016E00016D147F6C0703040616AB0EB811F0FD150
:1016F00006F440310122A06AC2EB5000B1EB004F6A
:1017000006D106F070612C20005DB1EB006F01D0B6
:101710000120BBE50020B9E5000047420038024047
:1017200070B504460E4615460CB9012070BD94F8FC
:10173000490028B9002084F84800204600F01CF831
:1017400004F108012068FFF7C9F93146A268206852
:10175000FFF7F2F92946236BD4E90102FFF79AF962
:10176000A168206850F8210040F00100A2682168BB
:1017700041F822000020D9E710B586B0044600BF2A
:10178000002000902248006840F0010020490860D5
:101790000846006800F00100009000BF00BF00BFD5
:1017A000002000901A480838006840F008001849E6
:1017B000083908600846006800F00800009000BF83
:1017C00000BF00BF002000900846006840F01000F5
:1017D00008600846006800F01000009000BF00BFDD
:1017E0004CF203700190022002900120039002202D
:1017F00004900C20059001A90648FFF72FFA4FF638
:101800008070019001A90448FFF728FA06B010BDC6
:1018100038380240000C02400010024070B5044607
:101820002546681EB0F1807F01D301200FE0681EBD
:101830004FF0E02148610F214FF0FF3001F08AFDA9
:1018400000204FF0E021886107200861002070BD72
:1018500010B504460CB9012010BD94F83D0028B91C
:10186000002084F83C00204600F025F8022084F88F
:101870003D00211D206800F0BBFB012084F84600DC
:1018800000BF84F83E0001213F2001554020015552
:101890004120015500BF00BF012084F842004320D1
:1018A0000155442001554520015500BF012084F811
:1018B0003D000020D0E77047014691F83D00012827
:1018C00001D001207047022081F83D000868C068FF
:1018D00040F001000B68D8601A4B086898421BD092
:1018E0000868B0F1804F17D0174B0868984213D0A2
:1018F000164B086898420FD0154B086898420BD0D9
:10190000144B0868984207D0134B0868984203D0DC
:10191000124B086898420CD10868806800F00702F2
:10192000062A0CD00868006840F001000B681860B7
:1019300005E00868006840F001000B6818600020AE
:10194000C0E7000000000140000400400008004023
:10195000000C00400004014000400140001800401D
:10196000704770472DE9F84F0446206805682068E5
:10197000C668206847694FF00009CA4605F00F099C
:10198000B9F1000F0AD105F0200038B106F02000AF
:1019900020B1204600F0CDFBBDE8F88FB9F1000F73
:1019A00072D007F0010018B906F4907000286BD0CF
:1019B00005F0010030B106F4807018B1206C40F0E1
:1019C0000100206405F0040030B107F0010018B1F7
:1019D000206C40F00200206405F0020030B107F0F6
:1019E000010018B1206C40F00400206405F00800EC
:1019F00048B106F0200010B907F0010018B1206CC2
:101A000040F008002064206C70B305F0200028B17D
:101A100006F0200010B1204600F08BFB20684069E2
:101A2000C0F3801A206C00F0080010B9BAF1000F62
:101A300023D0204600F052FB2068406900F04000AF
:101A4000402816D12068406920F040002168486194
:101A5000A06B50B15648A16B0865A06BFFF7E3F887
:101A600010B1A06B016D88470CE02046FFF779FFAD
:101A700008E02046FFF775FF04E02046FFF771FFFE
:101A80000020206488E7FFE7206B012879D105F06A
:101A90001000002875D006F01000002871D000BF9B
:101AA0000020009020680068009020684068009046
:101AB00000BF00BF2068406900F04000402839D1D5
:101AC000A06B006840681FFA80F8B8F1000F30D0B2
:101AD000A08D40452DDDA4F82E80A06BC069B0F527
:101AE000807F1FD02068C06820F480702168C860A3
:101AF0002068406920F00100216848612068406941
:101B000020F0400021684861202084F83E00002039
:101B100020632068C06820F010002168C860A06BB6
:101B2000FFF72CF8A08DE28D801A81B22046FFF7D6
:101B300017FF31E7A08DE18D401A1FFA80F8E08D84
:101B4000E8B1B8F1000F1AD02068C06820F4907096
:101B50002168C8602068406920F001002168486160
:101B6000202084F83E00002020632068C06820F018
:101B700010002168C86041462046FFF7F1FE0BE7E0
:101B8000FFE705F0800030B106F0800018B1204674
:101B900000F067FC00E705F0400030B106F04000BF
:101BA00018B1204600F0B5FAF6E600BFF4E60000F2
:101BB000C920000810B504460CB9012010BDA06969
:101BC00000B100E000BF94F83D0028B9002084F87F
:101BD0003C00204600F028F8242084F83D002068CE
:101BE000C06820F400502168C860204600F000FB67
:101BF0002068006920F490402168086120684069ED
:101C000020F02A00216848612068C06840F4005034
:101C10002168C86000202064202084F83D0084F8FA
:101C20003E000020CAE7000010B586B004462D49EA
:101C30002068884254D100BF00BF002000902A488D
:101C4000006840F01000284908600846006800F06D
:101C50001000009000BF00BF00BF00BF00BF002009
:101C6000009021481438006840F002001E491439E1
:101C700008600846006800F00200009000BF00BF46
:101C800000BF00BF00BF002000900846006840F081
:101C9000020008600846006800F00200009000BFE3
:101CA00000BF00BF4020019002200290012003905D
:101CB000022004900720059001A90C48FEF7CEFFF2
:101CC000802001900720059001A90848FEF7C6FF73
:101CD0002520FFF734F9032211462520FFF73FF9AD
:101CE00006B010BD0010014044380240000402401C
:101CF0002DE9F84F04460E46174699464FF0000A64
:101D000094F83E0020285FD106B117B90120BDE844
:101D1000F88F00BF94F83C00012801D10220F6E7BB
:101D2000012084F83C0000BF00202064222084F8B9
:101D30003E0000202063FFF7B1F88246A785E785C3
:101D4000A068B0F5805F04D1206910B90025B046C5
:101D500002E035464FF0000800BF002084F83C0048
:101D600000BF29E05346002220212046CDF80090F4
:101D700000F0A7FB08B10320C9E745B92068406817
:101D8000C0F30800A8F8000008F1020811E0A068FC
:101D9000B0F5805F03D0A06828B9206918B9206821
:101DA0004068287004E02068406800F07F002870D8
:101DB0006D1CE08D401EE085E08D0028D2D12020F2
:101DC00084F83E000020A2E70220A0E770B5044698
:101DD0000D46164694F83E00202816D105B10EB9DE
:101DE000012070BD00BF94F83C00012801D1022001
:101DF000F7E7012084F83C0000BF00202063324652
:101E00002946204600F00AFBEBE70220E9E7000044
:101E100010B5044620492068884236D11F48008802
:101E200000F4004088BB1D48008800F4804070B179
:101E30001B4800780A2803D000201849088024E0B5
:101E40001648008840F40040144908801DE01448FA
:101E500000780D2806D11148008840F480400F49D1
:101E6000088012E00E4800780C490988C1F30D0182
:101E70000C4A505409480088401C0849088008460C
:101E80000088C72801DD0020088001220449064897
:101E9000FFF79CFF10BD000000100140380000203B
:101EA0003A00002024030020EC0300202DE9F84F25
:101EB00004460E46174699464FF0000A94F83D0036
:101EC00020285AD106B117B90120BDE8F88F00BF0C
:101ED00094F83C00012801D10220F6E7012084F8A3
:101EE0003C0000BF00202064212084F83D00FEF764
:101EF000D5FF8246A784E784A068B0F5805F04D14F
:101F0000206910B90025B04602E035464FF00008C0
:101F100000BF002084F83C0000BF1BE053460022B5
:101F200080212046CDF8009000F0CBFA08B10320C4
:101F3000CBE745B9B8F80000C0F308002168486055
:101F400008F1020803E02878216848606D1CE08CE5
:101F5000401EE084E08C0028E0D15346002240215E
:101F60002046CDF8009000F0ACFA08B10320ACE7B1
:101F7000202084F83D000020A7E70220A5E7704755
:101F800000BFFEE700BFFEE770477047704710B51F
:101F9000FEF78AFF10BD00000348006840F470009F
:101FA000014908607047000088ED00E010B50E4858
:101FB0000068C06800F0010078B10C4908698047EA
:101FC000002009490968486200BF64200649096881
:101FD000C86264210448C16000BF6FF0010002497B
:101FE0000968086110BD000014050020F000002001
:101FF00010B50268294B98420ED0B0F1804F0BD03B
:10200000274B984208D0274B984205D0264B984240
:1020100002D0264B984203D122F070024B681A433B
:102020001E4B984220D0B0F1804F1DD01C4B9842DF
:102030001AD01C4B984217D01B4B984214D01B4B04
:10204000984211D01A4B98420ED01A4B98420BD09E
:10205000194B984208D0194B984205D0184B98421A
:1020600002D0184B984203D122F44072CB681A4335
:1020700022F080034C6943EA040202608B68C36269
:102080000B688362054B984202D0084B984201D1FD
:102090000B6903630123436110BD00000000014090
:1020A0000004004000080040000C00400004014013
:1020B0000040014000440140004801400018004039
:1020C000001C00400020004070B50546AC6B0020AD
:1020D000E085E0842046FFF744FC70BD0168C968D4
:1020E00021F490710268D1600168496921F0010111
:1020F00002685161016B012905D10168C96821F0AD
:1021000010010268D160202180F83E100021016397
:10211000704710B504462068C06820F04000216870
:10212000C860202084F83D002046FFF728FF0020EB
:1021300010BD70B5044694F83E00222856D1A06820
:10214000B0F5805F0CD1206950B90025A66A2068DF
:102150004068C0F308003080A06A801CA06215E0CF
:10216000A56A0026A068B0F5805F03D0A06828B9F2
:10217000206918B920684068287004E02068406829
:1021800000F07F002870A06A401CA062E08D401E15
:1021900080B2E08540BB2068C06820F02000216844
:1021A000C8602068C06820F480702168C86020681A
:1021B000406920F0010021684861202084F83E0039
:1021C000206B01280AD12068C06820F01000216827
:1021D000C860A18D2046FFF7C3FB02E02046FFF751
:1021E00017FE0020206370BD0020FCE70220FAE704
:1021F0002DE9F84F04462068006920F44050E1685A
:102200000843216808612169A0680843616908439F
:10221000E169084300902068C06849F20C61884376
:10222000009908432168C8602068406920F4407024
:10223000A16908432168486176492068884203D033
:1022400075492068884203D1FEF7B4FF814602E059
:10225000FEF7A0FF8146E069B0F5004F6CD1022087
:102260006168A0FB015003461920A9FB00700146DC
:102270002A463846FEF72FF86421B0FBF1F04FEA0A
:10228000001A02206168A0FB01510B461920A9FB2E
:1022900000712A463846FEF71EF883460220616820
:1022A000A0FB015003461920A9FB00712A463846BD
:1022B000FEF711F86421B0FBF1F000EBC00101EB77
:1022C0000010ABEB8000322101EBC0006421B0FBB9
:1022D000F1F000F0F8000AEB400A02206168A0FB70
:1022E000015003461920A9FB007001462A463846D2
:1022F000FDF7F1FF834602206168A0FB0150034611
:102300001920A9FB00712A463846FDF7E4FF642135
:10231000B0FBF1F000EBC00101EB0010ABEB800073
:10232000322101EBC0006421B0FBF1F000F00700A6
:102330005044216888606AE004206168A0FB015075
:1023400003461920A9FB007001462A463846FDF7CE
:10235000C2FF824604206168A0FB01500346192099
:10236000A9FB007001462A463846FDF7B4FF6421F8
:10237000B0FBF1F000EBC00101EB0010AAEB800014
:10238000322101EB00106421B0FBF1F000F0F00A03
:1023900004206168A0FB017003461920A9FB0051CD
:1023A0003A462846FDF797FF6421B0FBF1F00AEBAF
:1023B000001A04206168A0FB01510B461920A9FBFB
:1023C00000712A463846FDF786FF8346042061687F
:1023D000A0FB015003461920A9FB007001462A46C4
:1023E0003846FDF778FF6421B0FBF1F000EBC00147
:1023F00001EB0010ABEB8000322101EB00106421F7
:10240000B0FBF1F000F00F00504421688860BDE897
:10241000F88F0000001001400014014010B5034681
:1024200099629A85DA8500201864222083F83E009C
:1024300000BF002083F83C0000BF1868C06840F46B
:1024400080701C68E0601868406940F001001C68FA
:1024500060611868C06840F020001C68E0600020DF
:1024600010BD014691F83D00212828D18868B0F5BB
:10247000805F0BD1086948B90A6A1088C0F3080068
:102480000B685860086A801C086205E00B6A581CDB
:10249000086218780B685860C88C401E80B2C884E7
:1024A00058B90868C06820F080000B68D8600868D8
:1024B000C06840F040000B68D860002070470220E0
:1024C000FCE72DE9F04104460D4617469846069E66
:1024D00021E0701CF8B12EB1FEF7E0FCA0EB080083
:1024E000B04218D92068C06820F4D0702168C86054
:1024F0002068406920F0010021684861202084F8AC
:102500003D0084F83E0000BF002084F83C0000BF7E
:102510000320BDE8F081206800682840A84201D16E
:10252000012000E00020B842D3D00020F1E70000F5
:1025300010B50248FFF716FA10BD0000EC030020AA
:1025400008B50E4800680068C0F34010A8B14FF409
:102550007A73012269460948FFF7CAFB08480078E8
:1025600040280ADA9DF800000649054A1278885486
:1025700003480078401C0249087008BD9004002000
:1025800051000020D404002000BFFEE710B58CB03D
:102590000446234609A2202104A8FDF71FFF1F209F
:1025A00004A910226423CDE9002102904FF4FA72AD
:1025B00096211E2004F05AFB0CB010BD252D3230A0
:1025C0007300000010B5FEF769FC0446F848007877
:1025D000082805D2DFE800F00405719EFDFCFBFA37
:1025E000E3E128219FEDF30BF44800F0F9FCFEF73E
:1025F00055FCF34908600120F24908700A2000F0F8
:10260000CDFE1E219FEDF00BEC48383000F0E8FCC9
:10261000FEF744FCEA4948600120EA4948700A2074
:1026200000F0BCFE0A219FEDEA0BE448703000F098
:10263000D7FCFEF733FCE24988600120E14988704D
:102640000A2000F0ABFE0321DC48A83000F07AFD40
:102650000A2000F0A3FE002007E0DFA1C0EBC002CB
:10266000D64B03EBC2021163401C0428F5DB0020AB
:102670001BE0C0EBC001D14A02EBC101C96AD74AD5
:10268000126802EB4203C3EBC212B1EBC20F0BDDC7
:10269000C0EBC001C94A02EBC101C96A4FF47A72AA
:1026A00091FBF2F1CD4A1160401C0328E1DBCC48DC
:1026B00004600220BE49087077E1002018E0C0499C
:1026C00051F82010611AC0EBC002BC4B03EBC202F0
:1026D000D26A91420BD3C3A1C0EBC00203EBC2028A
:1026E00011630021C0EBC00203EBC202D162401CA7
:1026F0000328E4DBBA480068201AB849096801EBEE
:102700004102C2EBC111B0EBC10F02D30320A849B3
:1027100008704AE105219FEDB50BA84800F060FC68
:10272000FEF7BCFBA64908600120A64908700A20F4
:1027300000F034FE02219FEDAF0BA048383000F0CE
:102740004FFCFEF7ABFB9E49486001209D49487055
:102750000A2000F023FE05219FED9B0B9748703067
:1027600000F03EFCFEF79AFB9549886001209549F0
:1027700088700A2000F012FE002007E096A1C0EB4E
:10278000C0028E4B03EBC2021163401C0428F5DB30
:10279000002020E0C0EBC001884A02EBC101CA6AF8
:1027A0008E49496801EB4103C3EBC111B2EBC10F84
:1027B0000BDDC0EBC001814A02EBC101C96A4FF4D5
:1027C0007A7291FBF2F1854A516003E0DDE0AFE0FF
:1027D00036E008E0401C0328DCDB8148046004206C
:1027E00073490870E1E0002018E0754951F82010A5
:1027F000611AC0EBC002714B03EBC202D26A914274
:102800000BD378A1C0EBC00203EBC202116300211D
:10281000C0EBC00203EBC202D162401C0328E4DB20
:102820006F480068201A6D49496801EB4102C2EB0C
:10283000C111B0EBC10F02D305205D490870B4E0AF
:1028400028219FED6E0B5D4800F0CAFBFEF726FBCA
:102850005B49086001205B4908700A2000F09EFD7A
:1028600008219FED680B5548383000F0B9FBFEF7A2
:1028700015FB534948600120524948700A2000F076
:102880008DFD03219FED610B4C48703000F0A8FBDB
:10289000FEF704FB4A49886001204A4988700A20F3
:1028A00000F07CFD00214548A83000F04BFC0A20D8
:1028B00000F074FD002007E047A1C0EBC0023F4BD1
:1028C00003EBC2021163401C0328F5DB444804609B
:1028D00000204249886000BF1BE0C0EBC001374ABE
:1028E00002EBC101C96A3D4A926802EB4203C3EBA5
:1028F000C212B1EBC20F0BDDC0EBC0012F4A02EBDD
:10290000C101C96A4FF47A7291FBF2F1334A9160C6
:10291000401C0328E1DB31488068401D2F49886056
:1029200030A12648C0F8D8100620214908703CE0A4
:10293000002018E0224951F82010611AC0EBC002B3
:102940001E4B03EBC202D26A91420BD325A1C0EB0E
:10295000C00203EBC20211630021C0EBC00203EB13
:10296000C202D162401C0328E4DB1D480068211A22
:102970001A48806800EB4002C2EBC010B1EBC00FF8
:1029800002D307200A4908700FE0002007E015A1D4
:10299000C0EBC002094B03EBC2021163401C0428C8
:1029A000F5DB00200249087000BF00BF10BD000029
:1029B000040000200000000000003240E801002078
:1029C000000300202C0000200000000000003E401A
:1029D000000000000000144052554E00100300207B
:1029E0000800002053544F50000000000000000079
:1029F000000014C000000000000034C0000000000F
:102A000000002AC000000000000024C000000000F8
:102A1000008041C010B5FEF741FA0446F84800783E
:102A2000082805D2DFE800F00405719EFDFCFBFAE2
:102A3000E3E132219FEDF30BF44800F0D1FAFEF709
:102A40002DFAF34908600120F24908700A2000F0CD
:102A5000A5FC28219FEDF00BEC48383000F0C0FABF
:102A6000FEF71CFAEA4948600120EA4948700A204A
:102A700000F094FC0F219FEDEA0BE448703000F069
:102A8000AFFAFEF70BFAE24988600120E14988704D
:102A90000A2000F083FC3221DC48A83000F052FB11
:102AA0000A2000F07BFC002007E0DFA1C0EBC002A1
:102AB000D64B03EBC2021163401C0428F5DB002057
:102AC0001BE0C0EBC001D14A02EBC101C96AD74A81
:102AD000126802EB4203C3EBC212B1EBC20F0BDD73
:102AE000C0EBC001C94A02EBC101C96A4FF47A7256
:102AF00091FBF2F1CD4A1160401C0328E1DBCC4888
:102B000004600220CB49087077E1002018E0C0493A
:102B100051F82010611AC0EBC002BC4B03EBC2029B
:102B2000D26A91420BD3C4A1C0EBC00203EBC20234
:102B300011630021C0EBC00203EBC202D162401C52
:102B40000328E4DBBA480068201AB849096801EB99
:102B50004102C2EBC111B0EBC10F02D30320B54952
:102B600008704AE10A219FEDB60BA84800F038FA38
:102B7000FEF794F9A64908600120A64908700A20CA
:102B800000F00CFC05219FEDB00BA048383000F0A0
:102B900027FAFEF783F99E49486001209D49487055
:102BA0000A2000F0FBFB0A219FED9B0B9748703039
:102BB00000F016FAFEF772F99549886001209549F0
:102BC00088700A2000F0EAFB002007E096A1C0EB25
:102BD000C0028E4B03EBC2021163401C0428F5DBDC
:102BE000002020E0C0EBC001884A02EBC101CA6AA4
:102BF0008E49496801EB4103C3EBC111B2EBC10F30
:102C00000BDDC0EBC001814A02EBC101C96A4FF480
:102C10007A7291FBF2F1854A516003E0DDE0AFE0AA
:102C200036E008E0401C0328DCDB81480460042017
:102C300080490870E1E0002018E0754951F8201043
:102C4000611AC0EBC002714B03EBC202D26A91421F
:102C50000BD379A1C0EBC00203EBC20211630021C8
:102C6000C0EBC00203EBC202D162401C0328E4DBCC
:102C70006F480068201A6D49496801EB4102C2EBB8
:102C8000C111B0EBC10F02D305206A490870B4E04E
:102C900032219FED6F0B5D4800F0A2F9FEF7FEF8C0
:102CA0005B49086001205B4908700A2000F076FB50
:102CB0000F219FED690B5548383000F091F9FEF770
:102CC000EDF8534948600120524948700A2000F04D
:102CD00065FB0A219FED620B4C48703000F080F9D3
:102CE000FEF7DCF84A49886001204A4988700A20CA
:102CF00000F054FB00214548A83000F023FA0A20D8
:102D000000F04CFB002007E047A1C0EBC0023F4BA6
:102D100003EBC2021163401C0328F5DB4448046046
:102D200000204249886000BF1BE0C0EBC001374A69
:102D300002EBC101C96A3D4A926802EB4203C3EB50
:102D4000C212B1EBC20F0BDDC0EBC0012F4A02EB88
:102D5000C101C96A4FF47A7291FBF2F1334A916072
:102D6000401C0328E1DB31488068401D2F49886002
:102D700031A12648C0F8D81006202E4908703CE042
:102D8000002018E0224951F82010611AC0EBC0025F
:102D90001E4B03EBC202D26A91420BD326A1C0EBB9
:102DA000C00203EBC20211630021C0EBC00203EBBF
:102DB000C202D162401C0328E4DB1D480068211ACE
:102DC0001A48806800EB4002C2EBC010B1EBC00FA4
:102DD00002D30720174908700FE0002007E016A172
:102DE000C0EBC002094B03EBC2021163401C042874
:102DF000F5DB00200F49087000BF00BF10BD0000C8
:102E0000040000200000000000003240E801002023
:102E1000000300202C0000200000000000003E40C5
:102E2000000000000000144052554E001003002026
:102E3000080000200500002053544F5000000000FF
:102E400000000000000014C000000000000034C0BA
:102E50000000000000002AC000000000000024C0A4
:102E600000000000008041C02DE9F04F2DED068BE1
:102E700081B004466946204604F02EFA9DF8000011
:102E800020B901B0BDEC068BBDE8F08F9DF80000C5
:102E9000082801DD08200090277894F80180012F90
:102EA00006D0022F06D0032F07D0042F0BD107E046
:102EB000464D09E0454D383506E0444D703503E098
:102EC000424DA83500E0DCE700BFB8F1350F06D071
:102ED000B8F1360F14D0B8F13A0F5AD14EE09DF840
:102EE000000006280BDBA0782279E37842EA032170
:102EF000012801D14A4200E00A46AA6100BF49E028
:102F00009DF80000082838DB94F802A0E07800065D
:102F1000217940EA0140617940EA0120A17940EA43
:102F2000010BBAF1010F02D1CBF1000000E05846CD
:102F3000E86100BFEE7800BF304605F0F9FD41ECD6
:102F40001A0B9FED230B53EC102B05F041FE41ECC7
:102F5000180BE86905F0D5FD41EC1A0B9FED1E0B2F
:102F600053EC102B05F034FE41EC190B53EC182BED
:102F700005F012FCC5E9080100BF0BE09DF8000058
:102F8000042805DBA078C0F3400185F8281000BFB5
:102F900000E000BF00BF4FF01E09002612E0701CC9
:102FA00000EBC00101EB0010D22101EB800AC6EB5F
:102FB000C601064A02EBC1005246494600F004F938
:102FC000701CC6B2042EEADB00BF5AE7E8010020FD
:102FD000000000000000A9400000000000807640D2
:102FE000F0B52DED108B83B00446B0EE408AF0EEC4
:102FF000608A0D4684ED048B94ED081BB0EE410A07
:10300000F0EE610A53EC182B51EC100B05F010FB9D
:10301000C4E90801012D01D1E08808B1012D00D0DB
:10302000E5809FED3E0B53EC102B51EC180B05F097
:1030300093FD0FD2607808B9012000E00020A07055
:1030400051EC180B05F0E8FA41EC180BE08840420F
:10305000A06003E06078A070E088A060E07805F0F0
:1030600067FD41EC1B0B9FED2F0B53EC102B51EC2C
:10307000180B05F0ADFD41EC1C0B53EC1B2B05F0C0
:10308000A7FD41EC1A0B9FED290B53EC102B05F01B
:1030900083FB41EC190B05F007FD0646E08805F0BF
:1030A00047FD41EC1B0BE07805F042FD41EC1F0BA6
:1030B00053EC182B05F08CFD41EC1E0B9FED1D0B06
:1030C00053EC102B05F084FD41EC1D0B9FED170B0D
:1030D00053EC102B05F060FB41EC1C0B53EC1B2B4D
:1030E00005F05AFB41EC1A0B9FED140B53EC102B1F
:1030F00005F09EFA41EC190B05F0A6FCE0620021F8
:10310000CDE9006102912379E288A1782078FDF76A
:10311000E0FB304603B0BDEC108BF0BD00000000BA
:1031200000000000000000000000A94000000000B6
:103130000080764000000000004CED4000000000E0
:1031400000408F40F8B504460D460DB90F48206386
:103150002046294681608268002A09DA02895242A3
:10316000C28042780AB9012200E00022827003E0A6
:103170000289C2804278827000BF002000902379CB
:10318000E288A1782078FDF75DFCF8BD7BBF0008E0
:1031900030B5039C01704270C370047100258560D6
:1031A0009FED060B80ED040B8561C5619FED030B60
:1031B00080ED080B034D056330BD000000000000EA
:1031C0000000000080BF00082DE9F04F8FB00446DA
:1031D0000D4690464FF00A0B47462E462378504A3C
:1031E000202107A8FDF7FAF81F2007A91022CDE932
:1031F00000210290B9B2B0B213463C2203F036FD72
:103200005036206B0078522802D14FF4FC6001E068
:103210004FF478408146434A202107A8236BFDF7ED
:10322000DDF807A81021CDE901090091B9B2B0B2CB
:1032300010233C2203F01AFD14372E461F203A4972
:103240001022CDE900210290B9B2B0B213463C225F
:1032500003F00CFD4636A06800280EDD607808B942
:10326000324800E032488246A0685346314A0A217B
:10327000009004A8FDF7B2F817E0A06800280FDA64
:10328000607808B92A4800E028488246A068404291
:103290005346284A0A21009004A8FDF79FF804E04D
:1032A000254A0A2104A8FDF799F81F2004A9102235
:1032B000CDE900210290B9B2B0B21346462203F024
:1032C000D5FC14372E461F201C491022CDE90021C1
:1032D0000290B9B2B0B21346642203F0C7FC6E3656
:1032E00094ED041BB0EE410AF0EE610A51EC100BB4
:1032F00005F0AAFB0390124A202107A8039BFDF7C3
:103300006DF81F2007A91022CDE900210290B9B263
:10331000B0B21346502203F0A9FC0FB0BDE8F08F05
:1033200085BF00088CBF000891BF000898BF000847
:103330009CBF0008A1BF0008AABF0008B3BF0008D7
:10334000BBBF000802480068C0F3022070470000BD
:103350000CED00E010B5002804DB0A07130E054A47
:10336000135406E00A07140E034A00F00F031B1F54
:10337000D45410BD00E400E018ED00E030380A2815
:1033800001D2012070470020704700BF7047000045
:1033900001490860704700003000002010B5044665
:1033A0004FF47A7104FB01F000F002F810BD000048
:1033B00070B5034600224FF0E02675690D4E366861
:1033C00003FB06F44FF0E026B16910E04FF0E02671
:1033D000B06988420BD0884202D20E1A324402E011
:1033E0002E1A0E4432440146A24200D300E0EDE71B
:1033F00000BF70BD3000002000BF054A126802F017
:103400004002002AF9D0C2B2014B5A607047000056
:103410000010014000B587B000BF00BF0020019040
:103420002A48006840F010002849086008460068F3
:1034300000F01000019000BF00BF00BF00BF00BF40
:10344000002001900846006840F01000086008461F
:10345000006800F01000019000BF00BF00BF00BF77
:1034600000BF002001900846006840F0100008608E
:103470000846006800F01000019000BF00BF00BFC8
:103480000420029000200390012004900220059067
:1034900002A90F48FDF7E2FB0820029000200390EC
:1034A000012004900220059002A90948FDF7D6FBEF
:1034B000102002900020039001200490022005902B
:1034C00002A90348FDF7CAFB07B000BD303802402F
:1034D0000010024070B50446002514B101202149B6
:1034E00008702048007838B304211F48FDF7B8FC65
:1034F00048B108211C48FDF7B3FC20B110211A483F
:10350000FDF7AEFCC0B90A20FFF748FF00201549BF
:10351000087004211448FDF7A3FC00B90125082117
:103520001148FDF79DFC00B9022510210E48FDF75A
:1035300097FCA8B9032513E004210B48FDF790FC84
:1035400001280DD108210848FDF78AFC012807D180
:1035500010210548FDF784FC012801D101490870BC
:10356000284670BD500000200010024070B504468F
:10357000002609480588408845430021084603F095
:10358000F9F903F053FC00BF02E004480480761C04
:10359000AE42FAD370BD0000800400200008006C29
:1035A00010B5044658488471002C58D1F020564973
:1035B00008804FF4A07048800846808845F210517A
:1035C000884210D14FF430504F4908814FF42850B1
:1035D00048814FF42C5088814FF4F07008804FF4EC
:1035E000487048801AE04848808841F66311884254
:1035F0000DD12C20444908812B2048812A20888124
:103600004FF4F07008804FF44870488006E02C209A
:103610003D4908812A2048812B2088813A488088AA
:1036200045F21031884205D03748808847F29671BC
:10363000884206D14FF4A070334908804FF4F070EF
:1036400048803148808849F60601884258D14FF4B5
:10365000F0702D4908804FF44870488050E04FF4D6
:10366000A07029490880F02048800846808845F2EB
:103670001051884210D14FF43050234908814FF443
:10368000285048814FF42C5088814FF448700880AE
:103690004FF4F070488020E01B48808841F66311A9
:1036A000884205D01848808849F6060188420DD125
:1036B0002C20154908812A2048812B2088814FF42D
:1036C000487008804FF4F070488006E02C200E49C6
:1036D00008812A2048812B2088810B48808845F268
:1036E0001031884205D00848808847F29671884298
:1036F00006D14FF4F070044908804FF4A070488060
:10370000002003F019F810BD800400202DE9F047D7
:1037100006460F4690469A46002445460320A0EBF5
:10372000480944E07A1B91B2321990B2524600F037
:1037300099F83A1B91B2721990B2524600F092F881
:103740003A1991B2721990B2524600F08BF87A1978
:1037500091B2321990B2524600F084F87A1991B2BF
:10376000321B90B2524600F07DF83A1991B2721BAA
:1037700090B2524600F076F87A1B91B2321B90B2AA
:10378000524600F06FF83A1B91B2721B90B252464B
:1037900000F068F8641CB9F1000F03DAA000801D86
:1037A000814404E0601B80000A3081446D1EAC42FD
:1037B000B8DDBDE8F0872DE9FF4F84B081468A4629
:1037C0000020029083460698A0EB09050798A0EB1D
:1037D0000A06CDF80490CDF800A0002D01DD0127E8
:1037E00005E00DB9002702E04FF0FF376D42002ED3
:1037F00002DD4FF0010806E016B94FF0000802E0C4
:103800004FF0FF387642B54201DD2C4600E03446E9
:10381000002003901EE0009A91B2019A90B2119A92
:1038200000F020F8029828440290B3440298A04285
:1038300005DD0298001B0290019838440190A345D1
:1038400004DDABEB040B0098404400900398401C4F
:1038500080B20390611C03988842DCDD08B0BDE8AB
:10386000F08F000070B505460E46144631462846D6
:1038700003F080F803F0DAFA01490C8070BD000013
:103880000008006C2DE9F84105460E46174698469B
:10389000079C33463A46314628460094FFF78BFF93
:1038A00043462A46314628460094FFF784FF4346A4
:1038B0003A46414628460094FFF77DFF43463A4684
:1038C000314638460094FFF776FFBDE8F88110B521
:1038D000CF2003F09FFA002003F090FAC12003F0FC
:1038E0008DFA302003F08AFAED2003F093FA642079
:1038F00003F084FA032003F081FA122003F07EFA29
:10390000812003F07BFAE82003F084FA852003F09D
:1039100075FA102003F072FA7A2003F06FFACB20C8
:1039200003F078FA392003F069FA2C2003F066FAE4
:10393000002003F063FA342003F060FA022003F061
:103940005DFAF72003F066FA202003F057FAEA2028
:1039500003F060FA002003F051FA002003F04EFA61
:10396000C02003F057FA1B2003F048FAC12003F0EF
:1039700051FA012003F042FAC52003F04BFA30203F
:1039800003F03CFA302003F039FAC72003F042FA82
:10399000B72003F033FA362003F03CFA482003F056
:1039A0002DFA3A2003F036FA552003F027FAB12019
:1039B00003F030FA002003F021FA1A2003F01EFA77
:1039C000B62003F027FA0A2003F018FAA22003F029
:1039D00015FAF22003F01EFA002003F00FFA262059
:1039E00003F018FA012003F009FAE02003F012FABC
:1039F0000F2003F003FA2A2003F000FA282003F036
:103A0000FDF9082003F0FAF90E2003F0F7F9082079
:103A100003F0F4F9542003F0F1F9A92003F0EEF9D2
:103A2000432003F0EBF90A2003F0E8F90F2003F03C
:103A3000E5F9002003F0E2F9002003F0DFF90020AF
:103A400003F0DCF9002003F0D9F9E12003F0E2F9FA
:103A5000002003F0D3F9152003F0D0F9172003F06C
:103A6000CDF9072003F0CAF9112003F0C7F90620A9
:103A700003F0C4F92B2003F0C1F9562003F0BEF97E
:103A80003C2003F0BBF9052003F0B8F9102003F047
:103A9000B5F90F2003F0B2F93F2003F0AFF93F2052
:103AA00003F0ACF90F2003F0A9F92B2003F0B2F9D1
:103AB000002003F0A3F9002003F0A0F9012003F097
:103AC0009DF93F2003F09AF92A2003F0A3F9002082
:103AD00003F094F9002003F091F9002003F08EF92F
:103AE000EF2003F08BF9112003F094F97820FFF711
:103AF00055FC292003F08EF910BD10B5FF2003F00E
:103B000089F9FF2003F07AF9982003F077F906206D
:103B100003F074F9BC2003F07DF9012003F06EF985
:103B20000F2003F06BF9612003F068F9FF2003F028
:103B300065F9012003F062F9012003F05FF90B2021
:103B400003F05CF9102003F059F9372003F056F91F
:103B5000632003F053F9FF2003F050F9FF2003F036
:103B60004DF9012003F04AF9012003F047F9002044
:103B700003F044F9002003F041F9FF2003F03EF97F
:103B8000522003F03BF9012003F038F9002003F044
:103B900035F9402003F032F9BD2003F03BF9012054
:103BA00003F02CF9232003F029F9452003F026F92E
:103BB000672003F023F9012003F020F9232003F00C
:103BC0001DF9452003F01AF9672003F017F9BE200C
:103BD00003F020F9002003F011F9012003F00EF9A1
:103BE000AB2003F00BF9602003F008F9222003F06A
:103BF00005F9222003F002F9222003F0FFF8222029
:103C000003F0FCF8222003F0F9F8C72003F002F9D2
:103C1000362003F0F3F8ED2003F0FCF87F2003F0EA
:103C2000EDF80F2003F0EAF8C02003F0F3F80F20BE
:103C300003F0E4F80B2003F0E1F80A2003F0DEF8CB
:103C4000FC2003F0E7F8082003F0D8F8DF2003F0A9
:103C5000E1F8002003F0D2F8002003F0CFF80020B4
:103C600003F0CCF8002003F0C9F8002003F0C6F8F8
:103C7000202003F0C3F8F32003F0CCF8742003F005
:103C8000BDF8B42003F0C6F8002003F0B7F8002018
:103C900003F0B4F8002003F0B1F8F72003F0BAF80D
:103CA000822003F0ABF8B12003F0B4F8002003F059
:103CB000A5F8132003F0A2F8132003F09FF8F220D8
:103CC00003F0A8F8802003F099F8042003F096F898
:103CD000402003F093F8282003F090F8C12003F06F
:103CE00099F8172003F08AF8882003F087F88820D5
:103CF00003F084F8202003F081F8E02003F08AF834
:103D0000002003F07BF80A2003F078F8122003F07B
:103D100075F8102003F072F80E2003F06FF82020E1
:103D200003F06CF8CC2003F069F8072003F066F884
:103D3000062003F063F80B2003F060F80E2003F078
:103D40005DF80F2003F05AF80D2003F057F8152006
:103D500003F054F8102003F051F8002003F04EF85F
:103D6000E12003F057F8002003F048F80B2003F09F
:103D700045F8132003F042F80D2003F03FF80E2021
:103D800003F03CF81B2003F039F8712003F036F8FB
:103D9000062003F033F8062003F030F80A2003F081
:103DA0002DF80F2003F02AF80E2003F027F80F203B
:103DB00003F024F8152003F021F80C2003F01EF87E
:103DC000002003F01BF82A2003F024F8002003F061
:103DD00015F8002003F012F8012003F00FF8DF209F
:103DE00003F00CF82B2003F015F8002003F006F880
:103DF000002003F003F8032003F000F81F2002F076
:103E0000FDFF3A2003F006F8552002F0F7FF3620B8
:103E100003F000F8002002F0F1FF112002F0FAFF99
:103E20007820FFF7BBFA292002F0F4FF1420FFF7F7
:103E3000B5FA2C2002F0EEFF10BD10B5ED2002F017
:103E4000E9FF012002F0DAFFFE2002F0D7FFEE20AA
:103E500002F0E0FFDE2002F0D1FF212002F0CEFFD1
:103E6000F12002F0D7FF012002F0C8FFDF2002F0AE
:103E7000D1FF102002F0C2FFC42002F0CBFF8F2040
:103E800002F0BCFFC62002F0C5FF002002F0B6FF22
:103E9000E22002F0B3FFE22002F0B0FFE22002F0E5
:103EA000ADFFBF2002F0B6FFAA2002F0A7FFB020AE
:103EB00002F0B0FF0D2002F0A1FF002002F09EFFF3
:103EC0000D2002F09BFF002002F098FF112002F06D
:103ED00095FF002002F092FF192002F08FFF0020D2
:103EE00002F08CFF212002F089FF002002F086FF03
:103EF0002D2002F083FF002002F080FF3D2002F021
:103F00007DFF002002F07AFF5D2002F077FF0020A5
:103F100002F074FF5D2002F071FF002002F06EFFDE
:103F2000B12002F077FF802002F068FF002002F04D
:103F300065FF8B2002F062FF002002F05FFF9620F9
:103F400002F05CFF002002F059FFB22002F062FF95
:103F5000002002F053FF002002F050FF022002F088
:103F60004DFF002002F04AFF032002F047FF00202F
:103F700002F044FFB32002F04DFF002002F03EFFAC
:103F8000002002F03BFF002002F038FF002002F08A
:103F900035FF002002F032FF002002F02FFF00204A
:103FA00002F02CFF002002F029FF002002F026FF83
:103FB000002002F023FF002002F020FF002002F08A
:103FC0001DFF002002F01AFF002002F017FF002062
:103FD00002F014FF002002F011FF002002F00EFF9B
:103FE000002002F00BFF002002F008FF002002F08A
:103FF00005FF002002F002FF002002F0FFFE00207B
:1040000002F0FCFE002002F0F9FEB42002F002FFF4
:104010008B2002F0F3FE002002F0F0FE962002F06A
:10402000EDFE002002F0EAFEA12002F0E7FE0020F3
:1040300002F0E4FEB52002F0EDFE022002F0DEFE0A
:10404000002002F0DBFE032002F0D8FE002002F088
:10405000D5FE042002F0D2FE002002F0CFFEB620F2
:1040600002F0D8FE002002F0C9FE002002F0C6FED9
:10407000B72002F0CFFE002002F0C0FE002002F0C8
:10408000BDFE3F2002F0BAFE002002F0B7FE5E2027
:1040900002F0B4FE002002F0B1FE642002F0AEFE99
:1040A000002002F0ABFE8C2002F0A8FE002002F0FF
:1040B000A5FEAC2002F0A2FE002002F09FFEDC2054
:1040C00002F09CFE002002F099FE702002F096FEA5
:1040D000002002F093FE902002F090FE002002F0FB
:1040E0008DFEEB2002F08AFE002002F087FEDC202D
:1040F00002F084FE002002F081FEB82002F08AFE69
:10410000002002F07BFE002002F078FE002002F08A
:1041100075FE002002F072FE002002F06FFE00200B
:1041200002F06CFE002002F069FE002002F066FE44
:10413000BA2002F06FFE242002F060FE002002F0A0
:104140005DFE002002F05AFE002002F057FEC12062
:1041500002F060FE202002F051FE002002F04EFE30
:10416000542002F04BFE002002F048FEFF2002F037
:1041700045FE002002F042FEC22002F04BFE0A2063
:1041800002F03CFE002002F039FE042002F036FE70
:10419000002002F033FEC32002F03CFE3C2002F07F
:1041A0002DFE002002F02AFE3A2002F027FE002019
:1041B00002F024FE392002F021FE002002F01EFE53
:1041C000372002F01BFE002002F018FE3C2002F017
:1041D00015FE002002F012FE362002F00FFE002035
:1041E00002F00CFE322002F009FE002002F006FE72
:1041F0002F2002F003FE002002F000FE2C2002F02F
:10420000FDFD002002F0FAFD292002F0F7FD00205C
:1042100002F0F4FD262002F0F1FD002002F0EEFD98
:10422000242002F0EBFD002002F0E8FD242002F043
:10423000E5FD002002F0E2FD232002F0DFFD00207A
:1042400002F0DCFD3C2002F0D9FD002002F0D6FD9A
:10425000362002F0D3FD002002F0D0FD322002F023
:10426000CDFD002002F0CAFD2F2002F0C7FD002086
:1042700002F0C4FD2C2002F0C1FD002002F0BEFDC2
:10428000292002F0BBFD002002F0B8FD262002F03C
:10429000B5FD002002F0B2FD242002F0AFFD0020A9
:1042A00002F0ACFD242002F0A9FD002002F0A6FDE2
:1042B000232002F0A3FD002002F0A0FDC42002F0A4
:1042C000A9FD622002F09AFD002002F097FD052072
:1042D00002F094FD002002F091FD842002F08EFD9A
:1042E000002002F08BFDF02002F088FD002002F09B
:1042F00085FD182002F082FD002002F07FFDA42041
:1043000002F07CFD002002F079FD182002F076FD1D
:10431000002002F073FD502002F070FD002002F03A
:104320006DFD0C2002F06AFD002002F067FD1720F1
:1043300002F064FD002002F061FD952002F05EFDB8
:10434000002002F05BFDF32002F058FD002002F097
:1043500055FDE62002F052FD002002F04FFDC52081
:1043600002F058FD322002F049FD002002F046FD27
:10437000442002F043FD002002F040FD652002F0E1
:104380003DFD002002F03AFD762002F037FD0020CE
:1043900002F034FD882002F031FD002002F02EFDF5
:1043A000C62002F037FD202002F028FD002002F098
:1043B00025FD172002F022FD002002F01FFD012044
:1043C00002F01CFD002002F019FDC72002F022FDC2
:1043D000002002F013FD002002F010FD002002F08A
:1043E0000DFD002002F00AFDC82002F013FD0020A0
:1043F00002F004FD002002F001FD002002F0FEFCAE
:10440000002002F0FBFCC92002F004FD002002F0B5
:10441000F5FC002002F0F2FC002002F0EFFC00208E
:1044200002F0ECFC002002F0E9FC002002F0E6FCC7
:10443000002002F0E3FC002002F0E0FC002002F08B
:10444000DDFC002002F0DAFC002002F0D7FC0020A6
:1044500002F0D4FC002002F0D1FC002002F0CEFCDF
:10446000002002F0CBFC002002F0C8FCE02002F0AB
:10447000D1FC162002F0C2FC002002F0BFFC1C2080
:1044800002F0BCFC002002F0B9FC212002F0B6FCD6
:10449000002002F0B3FC362002F0B0FC002002F055
:1044A000ADFC462002F0AAFC002002F0A7FC52203E
:1044B00002F0A4FC002002F0A1FC642002F09EFCAB
:1044C000002002F09BFC7A2002F098FC002002F011
:1044D00095FC8B2002F092FC002002F08FFC9920CA
:1044E00002F08CFC002002F089FCA82002F086FC7F
:1044F000002002F083FCB92002F080FC002002F0D2
:104500007DFCC42002F07AFC002002F077FCCA2077
:1045100002F074FC002002F071FCD22002F06EFC6C
:10452000002002F06BFCD92002F068FC002002F0B1
:1045300065FCE02002F062FC002002F05FFCF3204A
:1045400002F05CFC002002F059FCE12002F062FC69
:10455000162002F053FC002002F050FC1C2002F058
:104560004DFC002002F04AFC222002F047FC002013
:1045700002F044FC362002F041FC002002F03EFC38
:10458000452002F03BFC002002F038FC522002F0F3
:1045900035FC002002F032FC642002F02FFC0020E9
:1045A00002F02CFC7A2002F029FC002002F026FC0C
:1045B0008B2002F023FC002002F020FC992002F066
:1045C0001DFC002002F01AFCA82002F017FC0020BD
:1045D00002F014FCB92002F011FC002002F00EFCE5
:1045E000C42002F00BFC002002F008FCCA2002F0FC
:1045F00005FC002002F002FCD22002F0FFFB0020AC
:1046000002F0FCFBD82002F0F9FB002002F0F6FBE0
:10461000E02002F0F3FB002002F0F0FBF32002F0B8
:10462000EDFB002002F0EAFBE22002F0F3FB0520A4
:1046300002F0E4FB002002F0E1FB0B2002F0DEFBC5
:10464000002002F0DBFB1B2002F0D8FB002002F070
:10465000D5FB342002F0D2FB002002F0CFFB442037
:1046600002F0CCFB002002F0C9FB4F2002F0C6FB99
:10467000002002F0C3FB612002F0C0FB002002F02A
:10468000BDFB792002F0BAFB002002F0B7FB8820C6
:1046900002F0B4FB002002F0B1FB972002F0AEFB69
:1046A000002002F0ABFBA62002F0A8FB002002F0E5
:1046B000A5FBB72002F0A2FB002002F09FFBC22066
:1046C00002F09CFB002002F099FBC72002F096FB51
:1046D000002002F093FBD12002F090FB002002F0BA
:1046E0008DFBD62002F08AFB002002F087FBDD2044
:1046F00002F084FB002002F081FBF32002F07EFB3D
:10470000002002F07BFBE32002F084FB052002F096
:1047100075FB002002F072FB0A2002F06FFB002004
:1047200002F06CFB1C2002F069FB002002F066FB2B
:10473000332002F063FB002002F060FB442002F013
:104740005DFB002002F05AFB502002F057FB0020D6
:1047500002F054FB622002F051FB002002F04EFBFD
:10476000782002F04BFB002002F048FB882002F08A
:1047700045FB002002F042FB972002F03FFB0020A7
:1047800002F03CFBA62002F039FB002002F036FBD1
:10479000B72002F033FB002002F030FBC22002F011
:1047A0002DFB002002F02AFBC72002F027FB00208F
:1047B00002F024FBD12002F021FB002002F01EFBBE
:1047C000D52002F01BFB002002F018FBDD2002F0D8
:1047D00015FB002002F012FBF32002F00FFB00207B
:1047E00002F00CFBE42002F015FB012002F006FBB6
:1047F000002002F003FB012002F000FB002002F089
:10480000FDFA022002F0FAFA002002F0F7FA2A205C
:1048100002F0F4FA002002F0F1FA3C2002F0EEFA85
:10482000002002F0EBFA4B2002F0E8FA002002F040
:10483000E5FA5D2002F0E2FA002002F0DFFA7420CF
:1048400002F0DCFA002002F0D9FA842002F0D6FA55
:10485000002002F0D3FA932002F0D0FA002002F0F8
:10486000CDFAA22002F0CAFA002002F0C7FAB32063
:1048700002F0C4FA002002F0C1FABE2002F0BEFA33
:10488000002002F0BBFAC42002F0B8FA002002F0C7
:10489000B5FACD2002F0B2FA002002F0AFFAD32030
:1048A00002F0ACFA002002F0A9FADD2002F0A6FA2C
:1048B000002002F0A3FAF32002F0A0FA002002F098
:1048C0009DFAE52002F0A6FA002002F097FA0020F7
:1048D00002F094FA002002F091FA002002F08EFA21
:1048E000022002F08BFA002002F088FA292002F060
:1048F00085FA002002F082FA3C2002F07FFA0020C4
:1049000002F07CFA4B2002F079FA002002F076FAED
:104910005D2002F073FA002002F070FA742002F0B9
:104920006DFA002002F06AFA842002F067FA002093
:1049300002F064FA932002F061FA002002F05EFABD
:10494000A22002F05BFA002002F058FAB32002F035
:1049500055FA002002F052FABE2002F04FFA002071
:1049600002F04CFAC42002F049FA002002F046FAA4
:10497000CD2002F043FA002002F040FAD32002F0EA
:104980003DFA002002F03AFADC2002F037FA00206B
:1049900002F034FAF32002F031FA002002F02EFA8D
:1049A000E62002F037FA112002F028FA002002F087
:1049B00025FA342002F022FA002002F01FFA5620D5
:1049C00002F01CFA002002F019FA762002F016FA22
:1049D000002002F013FA772002F010FA002002F013
:1049E0000DFA662002F00AFA002002F007FA882089
:1049F00002F004FA002002F001FA992002F0FEF918
:104A0000002002F0FBF9BB2002F0F8F9002002F0D0
:104A1000F5F9992002F0F2F9002002F0EFF9662092
:104A200002F0ECF9002002F0E9F9552002F0E6F975
:104A3000002002F0E3F9552002F0E0F9002002F036
:104A4000DDF9452002F0DAF9002002F0D7F9432021
:104A500002F0D4F9002002F0D1F9442002F0CEF99E
:104A6000002002F0CBF9E72002F0D4F9322002F066
:104A7000C5F9002002F0C2F9552002F0BFF900206C
:104A800002F0BCF9762002F0B9F9002002F0B6F984
:104A9000662002F0B3F9002002F0B0F9672002F0BE
:104AA000ADF9002002F0AAF9672002F0A7F9002072
:104AB00002F0A4F9872002F0A1F9002002F09EF98B
:104AC000992002F09BF9002002F098F9BB2002F037
:104AD00095F9002002F092F9992002F08FF9002058
:104AE00002F08CF9772002F089F9002002F086F9B3
:104AF000442002F083F9002002F080F9562002F0F1
:104B00007DF9002002F07AF9232002F077F90020E5
:104B100002F074F9332002F071F9002002F06EF90E
:104B2000452002F06BF9002002F068F9E82002F05D
:104B300071F9002002F062F9002002F05FF999207B
:104B400002F05CF9002002F059F9872002F056F9D2
:104B5000002002F053F9882002F050F9002002F002
:104B60004DF9772002F04AF9002002F047F966205B
:104B700002F044F9002002F041F9882002F03EF9E9
:104B8000002002F03BF9AA2002F038F9002002F0E0
:104B900035F9BB2002F032F9002002F02FF99920FC
:104BA00002F02CF9002002F029F9662002F026F923
:104BB000002002F023F9552002F020F9002002F035
:104BC0001DF9552002F01AF9002002F017F94420CF
:104BD00002F014F9002002F011F9442002F00EF95D
:104BE000002002F00BF9552002F008F9002002F035
:104BF00005F9E92002F00EF9AA2002F0FFF80020E2
:104C000002F0FCF8002002F0F9F8002002F0F6F8BB
:104C1000002002F0FFF8AA2002F0F0F8CF2002F006
:104C2000F9F8002002F0EAF8002002F0E7F800208E
:104C300002F0E4F8002002F0E1F8002002F0DEF8D3
:104C4000002002F0DBF8002002F0D8F8002002F08B
:104C5000D5F8002002F0D2F8002002F0CFF80020B2
:104C600002F0CCF8002002F0C9F8002002F0C6F8EB
:104C7000002002F0C3F8002002F0C0F8002002F08B
:104C8000BDF8002002F0BAF8F02002F0C3F80020CE
:104C900002F0B4F8502002F0B1F8002002F0AEF8B3
:104CA000002002F0ABF8002002F0A8F8F32002F098
:104CB000B1F8002002F0A2F8F92002F0ABF80620CB
:104CC00002F09CF8102002F099F8292002F096F8E2
:104CD000002002F093F83A2002F09CF8552002F0F0
:104CE0008DF8112002F096F86420FEF757FB29207A
:104CF00002F090F8352002F08DF8002002F07EF8E6
:104D0000512002F087F8FF2002F078F8532002F0DB
:104D100081F82C2002F072F8552002F07BF88220F6
:104D200002F06CF82C2002F075F810BD10B555217A
:104D30004FF4704002F084F8AA214FF2010002F013
:104D40007FF852214FF2020002F07AF808214FF268
:104D5000030002F075F801214FF2040002F070F830
:104D60000D214FF4304002F06BF80D214BF20100A1
:104D700002F066F80D214BF2020002F061F83421D6
:104D80004FF4364002F05CF834214BF2016002F03F
:104D900057F834214BF2026002F052F80D214FF423
:104DA000314002F04DF80D214BF2011002F048F8AD
:104DB0000D214BF2021002F043F834214FF437403A
:104DC00002F03EF834214BF2017002F039F8342140
:104DD0004BF2027002F034F800214FF4324002F03E
:104DE0002FF800214BF2012002F02AF800214BF2AB
:104DF000022002F025F824214FF4384002F020F878
:104E000024214BF6010002F01BF824214BF602008E
:104E100002F016F801214FF43F4002F011F80F2183
:104E20004FF4334002F00CF80F214BF2013002F046
:104E300007F80F214BF2023002F002F834214FF450
:104E4000394001F0FDFF34214BF6011001F0F8FF6D
:104E500034214BF6021001F0F3FF08214FF43540E6
:104E600001F0EEFF08214BF2015001F0E9FF0821AB
:104E70004BF2025001F0E4FF03214FF4424001F0F5
:104E8000DFFF24214FF43A4001F0DAFF24214BF6F2
:104E9000012001F0D5FF24214BF6022001F0D0FFC4
:104EA00000214FF43C4001F0CBFF78214BF601404C
:104EB00001F0C6FF00214BF6024001F0C1FF0021C6
:104EC0004FF43D4001F0BCFF78214BF6015001F05A
:104ED000B7FF00214BF6025001F0B2FF00214FF462
:104EE0003E4001F0ADFF64214BF6016001F0A8FFE8
:104EF00000214FF4514001F0A3FF33214DF2011086
:104F000001F09EFF00214DF2021001F099FF3421C3
:104F10004DF2031001F094FF00214DF2041001F056
:104F20008FFF3A214DF2051001F08AFF00214DF26A
:104F3000061001F085FF4A214DF2071001F080FFB5
:104F400000214DF2081001F07BFF5C214DF20910A9
:104F500001F076FF00214DF20A1001F071FF81216E
:104F60004DF20B1001F06CFF00214DF20C1001F01E
:104F700067FFA6214DF20D1001F062FF00214DF2F6
:104F80000E1001F05DFFE5214DF20F1001F058FF0A
:104F900001214DF2101001F053FF13214DF21110B9
:104FA00001F04EFF01214DF2121001F049FF542192
:104FB0004DF2131001F044FF01214DF2141001F0E5
:104FC0003FFF82214DF2151001F03AFF01214DF211
:104FD000161001F035FFCA214DF2171001F030FF15
:104FE00002214DF2181001F02BFF00214DF2191093
:104FF00001F026FF02214DF21A1001F021FF0121DC
:105000004DF21B1001F01CFF02214DF21C1001F0AB
:1050100017FF34214DF21D1001F012FF02214DF255
:105020001E1001F00DFF67214DF21F1001F008FF67
:1050300002214DF2201001F003FF84214DF22110D6
:1050400001F0FEFE02214DF2221001F0F9FEA42132
:105050004DF2231001F0F4FE02214DF2241001F074
:10506000EFFEB7214DF2251001F0EAFE02214DF2CC
:10507000261001F0E5FECF214DF2271001F0E0FEF1
:1050800002214DF2281001F0DBFEDE214DF2291045
:1050900001F0D6FE02214DF22A1001F0D1FEF221DC
:1050A0004DF22B1001F0CCFE02214DF22C1001F03C
:1050B000C7FEFE214DF22D1001F0C2FE03214DF27C
:1050C0002E1001F0BDFE10214DF22F1001F0B8FEA0
:1050D00003214DF2301001F0B3FE33214DF23110B7
:1050E00001F0AEFE03214DF2321001F0A9FE6D2158
:1050F0004DF2331001F0A4FE00214FF4524001F0B4
:105100009FFE33214DF2012001F09AFE00214DF265
:10511000022001F095FE34214DF2032001F090FEB3
:1051200000214DF2042001F08BFE3A214DF20520C2
:1051300001F086FE00214DF2062001F081FE4A2199
:105140004DF2072001F07CFE00214DF2082001F015
:1051500077FE5C214DF2092001F072FE00214DF234
:105160000A2001F06DFE81214DF20B2001F068FE56
:1051700000214DF20C2001F063FEA6214DF20D201E
:1051800001F05EFE00214DF20E2001F059FEE521F6
:105190004DF20F2001F054FE01214DF2102001F0DC
:1051A0004FFE13214DF2112001F04AFE01214DF274
:1051B000122001F045FE54214DF2132001F040FE73
:1051C00001214DF2142001F03BFE82214DF2152009
:1051D00001F036FE01214DF2162001F031FECA2108
:1051E0004DF2172001F02CFE02214DF2182001F0A3
:1051F00027FE00214DF2192001F022FE02214DF27E
:105200001A2001F01DFE01214DF21B2001F018FEB5
:1052100002214DF21C2001F013FE34214DF21D201D
:1052200001F00EFE02214DF21E2001F009FE672161
:105230004DF21F2001F004FE02214DF2202001F06A
:10524000FFFD84214DF2212001F0FAFD02214DF2F3
:10525000222001F0F5FDA4214DF2232001F0F0FD04
:1052600002214DF2242001F0EBFDB7214DF2252063
:1052700001F0E6FD02214DF2262001F0E1FDCF21F3
:105280004DF2272001F0DCFD02214DF2282001F033
:10529000D7FDDE214DF2292001F0D2FD02214DF291
:1052A0002A2001F0CDFDF2214DF22B2001F0C8FDA6
:1052B00002214DF22C2001F0C3FDFE214DF22D20E4
:1052C00001F0BEFD03214DF22E2001F0B9FD1021A9
:1052D0004DF22F2001F0B4FD03214DF2302001F0FA
:1052E000AFFD33214DF2312001F0AAFD03214DF233
:1052F000322001F0A5FD6D214DF2332001F0A0FD1B
:1053000000214FF4534001F09BFD33214DF2013059
:1053100001F096FD00214DF2023001F091FD3421A3
:105320004DF2033001F08CFD00214DF2043001F00C
:1053300087FD3A214DF2053001F082FD00214DF24A
:10534000063001F07DFD4A214DF2073001F078FD75
:1053500000214DF2083001F073FD5C214DF209305F
:1053600001F06EFD00214DF20A3001F069FD81214E
:105370004DF20B3001F064FD00214DF20C3001F0D4
:105380005FFDA6214DF20D3001F05AFD00214DF2D6
:105390000E3001F055FDE5214DF20F3001F050FDCA
:1053A00001214DF2103001F04BFD13214DF211306F
:1053B00001F046FD01214DF2123001F041FD542172
:1053C0004DF2133001F03CFD01214DF2143001F09B
:1053D00037FD82214DF2153001F032FD01214DF2F1
:1053E000163001F02DFDCA214DF2173001F028FDD5
:1053F00002214DF2183001F023FD00214DF2193049
:1054000001F01EFD02214DF21A3001F019FD0121BB
:105410004DF21B3001F014FD02214DF21C3001F061
:105420000FFD34214DF21D3001F00AFD02214DF235
:105430001E3001F005FD67214DF21F3001F000FD27
:1054400002214DF2203001F0FBFC84214DF221308D
:1054500001F0F6FC02214DF2223001F0F1FCA42112
:105460004DF2233001F0ECFC02214DF2243001F02A
:10547000E7FCB7214DF2253001F0E2FC02214DF2AC
:10548000263001F0DDFCCF214DF2273001F0D8FCB1
:1054900002214DF2283001F0D3FCDE214DF22930FB
:1054A00001F0CEFC02214DF22A3001F0C9FCF221BC
:1054B0004DF22B3001F0C4FC02214DF22C3001F0F2
:1054C000BFFCFE214DF22D3001F0BAFC03214DF25C
:1054D0002E3001F0B5FC10214DF22F3001F0B0FC60
:1054E00003214DF2303001F0ABFC33214DF231306D
:1054F00001F0A6FC03214DF2323001F0A1FC6D2138
:105500004DF2333001F09CFC00214FF4544001F087
:1055100097FC33214DF2014001F092FC00214DF245
:10552000024001F08DFC34214DF2034001F088FC73
:1055300000214DF2044001F083FC3A214DF2054078
:1055400001F07EFC00214DF2064001F079FC4A2179
:105550004DF2074001F074FC00214DF2084001F0CB
:105560006FFC5C214DF2094001F06AFC00214DF214
:105570000A4001F065FC81214DF20B4001F060FC16
:1055800000214DF20C4001F05BFCA6214DF20D40D4
:1055900001F056FC00214DF20E4001F051FCE521D6
:1055A0004DF20F4001F04CFC01214DF2104001F092
:1055B00047FC13214DF2114001F042FC01214DF254
:1055C000124001F03DFC54214DF2134001F038FC33
:1055D00001214DF2144001F033FC82214DF21540BF
:1055E00001F02EFC01214DF2164001F029FCCA21E8
:1055F0004DF2174001F024FC02214DF2184001F059
:105600001FFC00214DF2194001F01AFC02214DF25D
:105610001A4001F015FC01214DF21B4001F010FC75
:1056200002214DF21C4001F00BFC34214DF21D40D3
:1056300001F006FC02214DF21E4001F001FC672141
:105640004DF21F4001F0FCFB02214DF2204001F021
:10565000F7FB84214DF2214001F0F2FB02214DF2D3
:10566000224001F0EDFBA4214DF2234001F0E8FBC4
:1056700002214DF2244001F0E3FBB7214DF2254019
:1056800001F0DEFB02214DF2264001F0D9FBCF21D3
:105690004DF2274001F0D4FB02214DF2284001F0E9
:1056A000CFFBDE214DF2294001F0CAFB02214DF271
:1056B0002A4001F0C5FBF2214DF22B4001F0C0FB66
:1056C00002214DF22C4001F0BBFBFE214DF22D409A
:1056D00001F0B6FB03214DF22E4001F0B1FB102189
:1056E0004DF22F4001F0ACFB03214DF2304001F0B0
:1056F000A7FB33214DF2314001F0A2FB03214DF213
:10570000324001F09DFB6D214DF2334001F098FBDA
:1057100000214FF4554001F093FB33214DF201502D
:1057200001F08EFB00214DF2025001F089FB342183
:105730004DF2035001F084FB00214DF2045001F0C2
:105740007FFB3A214DF2055001F07AFB00214DF22A
:10575000065001F075FB4A214DF2075001F070FB35
:1057600000214DF2085001F06BFB5C214DF2095015
:1057700001F066FB00214DF20A5001F061FB81212E
:105780004DF20B5001F05CFB00214DF20C5001F08A
:1057900057FBA6214DF20D5001F052FB00214DF2B6
:1057A0000E5001F04DFBE5214DF20F5001F048FB8A
:1057B00001214DF2105001F043FB13214DF2115025
:1057C00001F03EFB01214DF2125001F039FB542152
:1057D0004DF2135001F034FB01214DF2145001F051
:1057E0002FFB82214DF2155001F02AFB01214DF2D1
:1057F000165001F025FBCA214DF2175001F020FB95
:1058000002214DF2185001F01BFB00214DF21950FE
:1058100001F016FB02214DF21A5001F011FB01219B
:105820004DF21B5001F00CFB02214DF21C5001F017
:1058300007FB34214DF21D5001F002FB02214DF215
:105840001E5001F0FDFA67214DF21F5001F0F8FAE9
:1058500002214DF2205001F0F3FA84214DF2215043
:1058600001F0EEFA02214DF2225001F0E9FAA421F2
:105870004DF2235001F0E4FA02214DF2245001F0E0
:10588000DFFAB7214DF2255001F0DAFA02214DF28C
:10589000265001F0D5FACF214DF2275001F0D0FA71
:1058A00002214DF2285001F0CBFADE214DF22950B1
:1058B00001F0C6FA02214DF22A5001F0C1FAF2219C
:1058C0004DF22B5001F0BCFA02214DF22C5001F0A8
:1058D000B7FAFE214DF22D5001F0B2FA03214DF23C
:1058E0002E5001F0ADFA10214DF22F5001F0A8FA20
:1058F00003214DF2305001F0A3FA33214DF2315023
:1059000001F09EFA03214DF2325001F099FA6D2117
:105910004DF2335001F094FA00214FF4564001F05B
:105920008FFA33214DF2016001F08AFA00214DF225
:10593000026001F085FA34214DF2036001F080FA33
:1059400000214DF2046001F07BFA3A214DF205602E
:1059500001F076FA00214DF2066001F071FA4A2159
:105960004DF2076001F06CFA00214DF2086001F081
:1059700067FA5C214DF2096001F062FA00214DF2F4
:105980000A6001F05DFA81214DF20B6001F058FAD6
:1059900000214DF20C6001F053FAA6214DF20D608A
:1059A00001F04EFA00214DF20E6001F049FAE521B6
:1059B0004DF20F6001F044FA01214DF2106001F048
:1059C0003FFA13214DF2116001F03AFA01214DF234
:1059D000126001F035FA54214DF2136001F030FAF3
:1059E00001214DF2146001F02BFA82214DF2156075
:1059F00001F026FA01214DF2166001F021FACA21C8
:105A00004DF2176001F01CFA02214DF2186001F00E
:105A100017FA00214DF2196001F012FA02214DF23D
:105A20001A6001F00DFA01214DF21B6001F008FA35
:105A300002214DF21C6001F003FA34214DF21D6089
:105A400001F0FEF902214DF21E6001F0F9F9672123
:105A50004DF21F6001F0F4F902214DF2206001F0D7
:105A6000EFF984214DF2216001F0EAF902214DF2B3
:105A7000226001F0E5F9A4214DF2236001F0E0F984
:105A800002214DF2246001F0DBF9B7214DF22560CF
:105A900001F0D6F902214DF2266001F0D1F9CF21B3
:105AA0004DF2276001F0CCF902214DF2286001F09F
:105AB000C7F9DE214DF2296001F0C2F902214DF251
:105AC0002A6001F0BDF9F2214DF22B6001F0B8F926
:105AD00002214DF22C6001F0B3F9FE214DF22D6050
